:020000040800F2
:1000000078220020DD01000883340008B52E0008A6
:1000100081340008550B0008514A00080000000018
:10002000000000000000000000000000390100088E
:10003000F50B0008000000007D01000825400008C5
:10004000F7010008F7010008F7010008F7010008B0
:10005000F7010008F7010008F7010008F7010008A0
:10006000F7010008F7010008F7010008F701000890
:10007000F7010008F7010008F7010008F701000880
:10008000F7010008F7010008F7010008F701000870
:10009000F7010008F7010008F7010008F70B000856
:1000A000F7010008F7010008F7010008F701000850
:1000B000F7010008F7010008F7010008F701000840
:1000C000F7010008F7010008F7010008F701000830
:1000D000F70100083D490008F7010008F701000892
:1000E000F7010008453C0008F7010008F701000887
:1000F000F701000800000000F7010008F701000800
:100100000000000000000000F7010008F7010008EF
:10011000F7010008F7010008F701000800000000DF
:10012000F7010008DFF80CD000F09AFB0048004708
:100130003161000878220020204B19680868B0E877
:10014000F00F80F30988BFF36F8F4FF0000080F34A
:1001500011884EF00D0E7047000000000648006840
:10016000006880F3088862B661B6BFF34F8FBFF3B3
:100170006F8F00DF00BF00BF08ED00E0EFF30980E4
:10018000BFF36F8F0D4B1A6820E9F00F106008B5B0
:100190004FF0500080F3118806F046FD4FF000004C
:1001A00080F31188BDE8084019680868B0E8F00FCE
:1001B00080F30988BFF36F8F704700BF00000020F5
:1001C000EFF311804FF0500181F31188704780F3F5
:1001D00011887047EFF3058070470000064880479C
:1001E00006480047FEE7FEE7FEE7FEE7FEE7FEE71C
:1001F000FEE7FEE7FEE7FEE7B94500082501000837
:1002000040EA01039B0703D009E008C9121F08C098
:10021000042AFAD203E011F8013B00F8013B521E18
:10022000F9D27047D2B201E000F8012B491EFBD28F
:1002300070470022F6E710B513460A4604461946F1
:10024000FFF7F0FF204610BD421C10F8011B0029EB
:10025000FBD1801A704710B5002200E0521C835C6D
:100260008C5CA34201D1002BF8D1D8B2E1B2401A84
:1002700010BD30B505460020034600E05B1C9342EC
:1002800005D2EC5CC85C201A01D1002CF6D130BD3F
:100290002DE9F0410E460546002400E0641C285D6F
:1002A00000F043FA0746305D00F03FFA381A02D1F9
:1002B000295D0029F2D1BDE8F08180EA010210B584
:1002C00002F00043400022D04A001FD0010E01EB93
:1002D0001261C0F35600C2F3560240F4000042F42B
:1002E0000002A0FB022000047F39140400D0401C4F
:1002F00050EA124001D44000491EC2B20C0604EB81
:10030000D010401C4008802A02D003E0002010BD1D
:1003100020F00100002900DA0020184310BD30B49D
:1003200080EA010202F0004530F0004221F0004076
:1003300013D090B1C30DD40DC2F31601C0F3160053
:10034000E41A41F4000140F400027D34914201D3EB
:10035000641C00E04900002C02DA30BC0020704729
:100360004FF400000023914201D3891A034340084F
:100370004FEA4101F7D151B1914202D14FF0004112
:1003800005E002D24FF0010101E06FF0010103EB43
:10039000C450284430BC00F0CEB92DE9FE4F804651
:1003A00081EA0300C00F0C46009021F0004123F0C9
:1003B0000045B8EB0200A94105D2404621469046CF
:1003C0001C460B46024623F00040104347D0270D41
:1003D000C7F30A00C3F30A510290401A0190402863
:1003E0006BDAC3F3130040F4801B0098924620B1EF
:1003F0000023D2EB030A63EB0B0B01985946C0F1C3
:100400004002504600F060F906460D4650465946F7
:10041000019A00F078F910EB08006141002487EAA6
:10042000115284EAE7731A4340D0009A62B3019AEA
:10043000012A4FEA075215DC001B61EB02014FF065
:10044000004202EA0752CDE90042001C41F580114A
:1004500032462B4600F0B5F903B0BDE8F08F4046B8
:100460002146F9E7001B61EB0201001C41F58013F6
:1004700000185B412018A2F5001747EB030140EA82
:10048000D570B6196D4111E06D084FEA360645EAA0
:10049000C0754FEA0752001B61EB0201001C41F5D9
:1004A000801149084FEA30000019514132462B466D
:1004B00003B0BDE8F04F00F075B90098012240008C
:1004C0000023D0EB020263EBE073009821464FEA71
:1004D000E074B8EB000061EB0401E9E783F000434E
:1004E0005BE781F0004158E72DE9FE4F81EA030404
:1004F00004F0004421F0004100944FF0000B23F081
:10050000004350EA01045ED052EA03045BD0C3F317
:100510000A54C1F30A552C44A4F2F3340194A0FB0D
:100520000254C1F3130141F48011C3F3130343F4E4
:10053000801301FB024400FB034E840A970A44EA3D
:10054000815447EA8357A4FB076802958D0A05FB8F
:1005500007854FEA932C04FB0C542705029D4FEAB4
:10056000065847EA1637B5EB08056EEB070C870E01
:10057000920E47EA811742EA8312A7FB0201B6EB0B
:100580000B0164EB00042B0D43EA0C335E1844EBC3
:100590001C50DA465146E7FB0201C5F313044FEA4B
:1005A0000B3343EA14534FEA0432019C43EA060337
:1005B000A4F10C040294009CCDE900B400F001F910
:1005C00003B0BDE8F08F00200146F9E79623002232
:1005D000114600F0B9B8C1F30A5210B5C1F31301C6
:1005E00040F2FF3341F480119A4201DA002010BD3D
:1005F00040F233439A42A2F2334203DC524200F00B
:1006000072F810BD904010BD00F0004230F0004084
:100610000AD0C10D01F56071C0F3160042EA015124
:10062000C20840071143704700200146704701F09F
:10063000004330B421F0004150EA010206D00A0D17
:10064000A2F56072C1F31301002A02DC30BC002065
:100650007047440F44EAC104C100E01830BC00EB0D
:10066000C25000F068B82DE9F05F054600209246C0
:100670009B4688460646814640241BE02846414664
:100680004746224600F02FF853465A46C01A914179
:1006900010D311461846224600F016F82D1A67EBC3
:1006A00001084F4622460120002100F00DF817EB0B
:1006B00000094E41201EA4F10104DFDC484631460A
:1006C0002A464346BDE8F09F202A04DB203A00FA80
:1006D00002F1002070479140C2F1200320FA03F399
:1006E000194390407047202A04DB203A21FA02F097
:1006F0000021704721FA02F3D040C2F1200291405C
:10070000084319467047202A06DBCB17203A41FAE6
:1007100002F043EAE07306E041FA02F3D040C2F18E
:1007200020029140084319467047A0F14101192960
:1007300000D8203070470029A8BF7047401C4900EE
:1007400008BF20F00100704710B4B0FA80FC00FA36
:100750000CF050EA010404BF10BC704749B1CCF161
:10076000200421FA04F411FA0CF118BF01212143ED
:100770000843A3EB0C01CB1D4FEA00614FEA1020A8
:1007800042BF002010BC704700EBC350104400294A
:10079000A4BF10BC7047401C490008BF20F00100F6
:1007A00010BC704710B5141E73F1000408DA401C29
:1007B00041F1000192185B411A4301D120F0010080
:1007C00010BD2DE9F04D92469B4611B1B1FA81F270
:1007D00002E0B0FA80F220329046FFF775FF04463F
:1007E0000F4640EA0A0041EA0B0153465A460843C5
:1007F00013D0114653EA010019D0C8F14002504607
:10080000FFF771FF05460E46504659464246FFF730
:100810005BFF084305D0012004E020463946BDE8CF
:10082000F08D0020054346EAE0762C4337430A98D2
:100830006305E40AA0EB08000022FD0A44EA4754DD
:100840000A3002D500200146E9E701051019694187
:10085000DDE9084500196941BDE8F04DA2E7000057
:10086000064C074D06E0E06840F0010394E80700FD
:1008700098471034AC42F6D3FFF758FC0C790008C7
:100880002C790008F8B50026044600960068016837
:10089000C94349062AD5816841F0010181601448A5
:1008A00014490068B0FBF1F000EB400000E0401E8E
:1008B00000900028FBD100F0C7FD054611E000BF05
:1008C00000F0C2FD401B02280BD9E06C40F0100084
:1008D000E064206D40F00100206584F8486001204C
:1008E000F8BD20680068C0434006E9D40020F8BD88
:1008F0003800002040420F003EB511480F49012446
:100900000160002141608160C160016141618161DC
:10091000C1610162C0E90914C0E90B141022C0E9E9
:100920000D21C16300F078FA0920CDE9000405200B
:1009300002906946024800F0C7F93EBD002401401C
:10094000C40400202DE9F04107461D4616460C461A
:10095000006805F0A9FBC1B22868401C2860172870
:100960001BDD0020286001EB8102306802EBC10131
:100970000B4A401C02EB41013060226831F8121032
:1009800081420ADA012131602068401C20600C2875
:1009900003DD21603868401C3860BDE8F08100004C
:1009A000307600082DE9F04107461D4616460C46F4
:1009B000DDF81880006805F077FBC1B2D8F80000B8
:1009C000401CC8F800003B2822DD0022C8F80020A7
:1009D0002868401C286017281ADD2A6001EB810274
:1009E000306802EBC1010B4A401C02EB4101306050
:1009F000226831F8121081420ADA01213160206840
:100A0000401C20600C2803DD21603868401C3860E1
:100A1000BDE8F0813076000810B503F087F90A4987
:100A200001200870034600219522084603F02AFAA7
:100A300008B1012010BD0023FF221946012003F058
:100A400021FA0028F7D110BDE00000202DE9F04781
:100A500017461E4689464FF00008044601254346C6
:100A6000FF223946102003F0D1F958B912E000BF37
:100A700003F0FAF909EB08010023FF22112003F02B
:100A8000C5F910B10120BDE8F087FE2003F098F908
:100A900030B10125761EEBD203F0E6F92846F2E7E5
:100AA000002504E003F074F904F8010B6D1CBD424D
:100AB000F8D3B84403F06CF903F06AF90025E9E7CC
:100AC0002DE9F0471E4617468A464FF000080125DB
:100AD000044637E00AEB08010023FF22182003F048
:100AE00095F910B10120BDE8F087FF2003F07AF9F5
:100AF000FE2003F077F9002504E0207803F072F976
:100B0000641C6D1CBD42F8D3B84403F041F903F0F6
:100B10003FF94FF0000900BF03F03AF900F01F055C
:100B2000052D08D00B2D0CD00D2D0AD009F101098F
:100B3000B9F1400FF0D903F02BF90028FBD0052DB7
:100B400006D00125761EC5D203F08EF92846CAE7E5
:100B50000025F7E7FEE7000030B503460020024617
:100B6000064C07E09D5C4540EDB2521C34F8155030
:100B700085EA10208A42F5D330BD0000987600083F
:100B800070B50026324633463546344608B14278C1
:100B9000837809B10D784C780C2A00D901221F2BDB
:100BA00000D90123172D00D900253B2C00D90024A2
:100BB000521ED0B20E4908E001EB80025268C2EB2F
:100BC000021202EB420206EB4216401EC0B2F3D202
:100BD0005B1ED8B2C0EB001000EB400006EB4010EB
:100BE000C5EB051100EB81002044401C70BD0000E6
:100BF000647600087047402000F04ABB184A002184
:100C00001068C305174804D5416941F002014161EC
:100C1000911513689B0505D5436943F001034361B2
:100C200041F4007113681B0505D5436943F00403C3
:100C3000436141F4006113689B0405D5436943F0A7
:100C40001003436141F400511368DB0405D5436987
:100C500043F02003436141F480511160704700006C
:100C6000183C0240600A002070B5054600F0ECFB1D
:100C70000646144C09E0681C07D025B100F0E4FBDF
:100C8000801BA84201D9032070BD2068C007F2D1A3
:100C90002068800701D5022020602068C0050BD4A1
:100CA0002068000508D42068800405D42068C004AA
:100CB00002D42068800503D5FFF7A0FF012070BD96
:100CC000002070BD183C0240F8B50024009490F854
:100CD00048202546012A12D0012280F848204A687F
:100CE0001F23072A0DD20668376C521E02EB8202C0
:100CF00093409F430B6893401F43376435E00220C5
:100D0000F8BD0D2A0BD20768FE6BD21F02EB8202E0
:100D100093409E430B6893401E43FE6325E0132AD5
:100D20000BD20668B76B0D3A02EB820293409F43E9
:100D30000B6893401F43B76317E00668192A0AD26D
:100D4000776B133A02EB820293409F430B68934008
:100D50001F43776309E0376B193A02EB8202934035
:100D60009F430B6893401F4337630A6807230A2A8F
:100D70000AD20668776902EB420293409F438B6870
:100D800093401F4377611CE0142A0BD207683E6929
:100D90000A3A02EB420293409E438B6893401E4303
:100DA0003E610EE01A2A0BD80768FE68143A02EB7F
:100DB000420293409E438B6893401E43FE6000E0D6
:100DC00000BF0A68102A01D0112A17D10D4A1368F2
:100DD0001B0213D4136843F400031360096810293D
:100DE0000CD10949094A0968B1FBF2F101EB810113
:100DF000490000E0491E00910029FBD180F84850CD
:100E00002046F8BD042701403800002040420F0072
:100E10000068806D70470000F8B504004FF00005D1
:100E200003D0E06C002610B110E00120F8BD26656B
:100E30005B4884F84860016841F001010160006886
:100E400000F001000090204600F0B4F8E06CC0060D
:100E500078D4E06C20F4885040F00200E0645148FF
:100E60000168626821F44031114301606169E06802
:100E70004FF40073084393FAA3F3E26BB3FA83F3DE
:100E8000216A9A4011430843022191FAA1F1626A52
:100E9000B1FA81F102FA01F10843616B102902D025
:100EA000A36B19430843236819684FF48077C9433B
:100EB000490629D5A169D4F81CC00843A168D4F813
:100EC00010E041EA0C01BE450CD0BEF1010F09D083
:100ED0004FF0000C41EA0C01D4F82CC0BCF1010F1A
:100EE00002D00AE0BC46F5E76AB3E26C42F02002A9
:100EF000E264226D42F0010222655A68DFF8A8C060
:100F000002EA0C020A435A6021688A68274B1A4099
:100F100002438A602169B94224D0012922D0216884
:100F20000A6B22F0F8720A6321688968204A11402E
:100F3000814227D12665E06C20F0020040F00100DC
:100F4000E0642AE028E0FFE74FF4604C226B9CFA53
:100F5000ACFCBCFA8CFC521E02FA0CF20A4342F4BE
:100F60000061CAE721680A6B4FF0F87722F0F87346
:100F7000A26A97FAA7F7B7FA87F7521EBA40134347
:100F80000B63D1E7E06C20F0020040F01000E06459
:100F9000206D40F00100206501252846F8BD0000C5
:100FA0002038024004270140FF16FCFC89F1FFC0F5
:100FB000FEFF80BF10B50068164994B0884227D163
:100FC0001548016841F002010160006800F002006C
:100FD00012901148001D016841F400710160006821
:100FE00000F400701290684600F0CCFC10200490D1
:100FF0000120022403900094684600F0A1FD032024
:10100000CDE90D4000200F900DA9044800F04CF9E7
:1010100014B010BD002401401C38024000040240FE
:101020002DE9F041044600680D4681684FF0000745
:1010300049050BD58068C00508D5E06C40F020005C
:10104000E06484F848700120BDE8F08100F0FCF90C
:1010500006460FE0681C0DD025B100F0F5F9801BA5
:10106000A84207D9E06C40F00400E06484F84870BE
:101070000320E9E7206800688007EBD5A06918B96C
:1010800021686FF012000860E06C40F40070E064CA
:101090002068816811F0405F13D1616A89B9016BE2
:1010A00011F0F87F02D0806840050AD4E06C20F48B
:1010B0008070E064E06CC00403D4E06C40F0010098
:1010C000E0640020C0E710B5044690F8480001280D
:1010D00022D0012084F848002046FFF7D3FB0028E7
:1010E0001BD1E16C40F20162914341F48071E164F3
:1010F00021684A68520505D5E26C22F4005242F498
:101100008052E264E26CD3044FF0000206D5236DF6
:1011100023F00603236502E0022010BD226584F857
:1011200048206FF022020A6021688A6812F0405F4E
:10113000F3D18A6842F080428A6010BD034801689A
:1011400041F001010160002070470000043C0240B2
:101150002DE9F047064631480C461546017C012929
:101160000BD00121814601744CF250373846FFF70D
:101170007BFD4FF0000A18B14DE00220BDE8F0877A
:10118000C9F814A0DFF89880042E09D0082E13D0D7
:10119000102E1DD0022E26D0012E2AD086B33AE082
:1011A000EDB23846FFF760FD58BBD8F8001021F4C7
:1011B0008071C8F800102AE0ADB23846FFF754FD40
:1011C000F8B9D8F8001021F48071C8F8001015E0C3
:1011D0003846FFF749FDA0B9D8F8001021F4807116
:1011E000C8F8001003E03846FFF73EFD48B9256017
:1011F0000EE0ADB23846FFF737FD10B9258007E0A5
:1012000000E008E0EDB23846FFF72EFD18B9257072
:101210003846FFF729FD89F810A0AFE7600A0020E3
:10122000043C024006480068C00707D0044805494E
:1012300008300160044901600020704701207047B8
:10124000043C0240EFCDAB890504030210B5172022
:1012500000F060F9172000F05DF90B4C40212046AA
:1012600000F0E8F828B12046BDE81040402100F029
:10127000E1B806480168491C0160D0F8F410491C27
:10128000C0F8F41010BD0000000402401805002052
:10129000044910B50A68024202D00860FFF7D6FF81
:1012A00010BD0000140401402DE9F84FDFF864B1CF
:1012B00000234FF0010C4FF0030A4FF00F090BF120
:1012C000040EA0E00CFA03F6324072D04C68022CF7
:1012D00001D0122C0ED1DC0800EB8408D8F8204095
:1012E0005D07EF0E09FA07F5AC430D69BD402543D4
:1012F000C8F8205007685D0091F804800AFA05F4E8
:1013000008F00308A74308FA05F848EA0708C0F8F8
:1013100000804F68012F05D0022F03D0112F01D07C
:10132000122F11D18768D1F80C80A74308FA05F86D
:1013300048EA0708C0F808804768B7430E79C6F343
:1013400000169E403E434660C668A6438C68AC408B
:101350003443C4604C68E40054D52F4C256845F0F4
:1013600001052560246823F0030504F001040094BE
:101370002A4C2544AF689C07240F09FA04F6B743AA
:10138000274EB04201D1002615E0264EB04201D1D1
:10139000012610E0244EB04201D102260BE0234E7C
:1013A000B04201D1032606E0214EB04202D104260C
:1013B00001E027E00526A6403E43AE60DBF8004092
:1013C0005D464E689443F60300D514432C60DEF866
:1013D000004075464E689443B60300D514432C6014
:1013E0000C4D08352C684E689443F60200D5144322
:1013F0002C60084D0C352C684E689443B60200D51D
:1014000014432C605B1C0A6832FA03F47FF45AAF71
:10141000BDE8F88F00040140203802400000014080
:10142000000002400004024000080240000C02409C
:10143000001002400069084000D0012070470AB146
:10144000816170470904FBE70148006870470000AC
:10145000AC00002070B5040011D021684CF6CC40DF
:101460000860216845F255500860D4E900014160E8
:101470002168A0688860FFF7E7FF054609E00120C2
:1014800070BD00BFFFF7E0FF401B302801D90320EB
:1014900070BD2068C0680028F4D121684AF6AA20EF
:1014A0000860002070BD00684AF6AA210160002093
:1014B0007047000002480168491C01607047000045
:1014C000AC000020094810B5016841F0040101603A
:1014D000016841F002010160032000F051F80F2083
:1014E00000F006F800F015F8002010BD003C0240A6
:1014F00010B5044600F040FA4FF47A71B0FBF1F0F9
:1015000001F0EEFB00222146501E00F019F80020E9
:1015100010BD704700F01F0201219140400980007A
:1015200000F1E020C0F88011704700F01F02012197
:1015300091404009800000F1E020C0F800117047A0
:10154000F0B40E4B1B680C46C3F30223C3F107052E
:10155000042D00D90425191D072901D2002300E01C
:10156000DB1E012606FA05F1491E214099409E40E6
:10157000761E16403143F0BC01F084BF0CED00E054
:10158000064900F0070208684FF6FF03184040EADA
:101590000220034A10430860704700000CED00E091
:1015A0000000FA05BFF34F8F04480168044A01F4B4
:1015B000E06111430160BFF34F8FFEE70CED00E0E7
:1015C0000400FA050248006800F4C05070470000AB
:1015D000007000400120010291FAA1F1024AB1FA23
:1015E00081F142F82100704700000E42094A136859
:1015F00023F00303034313600748026822F0040248
:101600000260012903D040BF20BF20BF704730BF18
:10161000704700000070004010ED00E02DE9F84F29
:1016200004460068C10701D1800778D5DFF86881DA
:101630000027D8F80000C0000BD4D8F8001041F003
:101640008051C8F80010D8F80000012700F0805041
:101650000090524D2868C00510D4286840F480706E
:101660002860FFF7F1FE064605E000BFFFF7ECFE3D
:10167000801B64285CD82868C005F7D5464E243EF8
:101680003068616800F0C04001F0C042824204D17D
:10169000A26802F0C042824209D0C1F3014003288F
:1016A00005D13068800302D50120BDE8F88F3A4D9E
:1016B0001035286810F4403052D001F44031814296
:1016C00002D02178C90707D1A16801F440318142D5
:1016D00046D02078800743D528684FF4000292FA5C
:1016E000A2F1B1FA81F14FEA810C2D494FF0010AC4
:1016F0008C4420F44030CCF880A692FAA2F2B2FAE0
:1017000082F201EB82010023C1F880362860C00517
:1017100026D5FFF799FE81464FF4007B0AE038E0BA
:10172000FFF792FEA0EB090141F28830814201D916
:101730000320BAE79BFAABF0B0FA80F040F040012A
:10174000BAEB511F01D1316800E029689BFAABF276
:10175000B2FA82F202F01F020AFA02F00142DFD06E
:101760006068C0F30141032906D1316800F0C04030
:1017700021F0C041014331602868616801F44031C3
:10178000084328602FB1D8F8001021F08051C8F824
:101790000010002089E7000024380240007000405B
:1017A000000047422DE9F047DFF8BC8105460E46B0
:1017B000D8F8000000F00100B04214D2012E05D18B
:1017C000D8F8001041F00401C8F80010D8F8001053
:1017D00021F001013143C8F80010D8F8000000F0F2
:1017E0000100B04271D12878604C800705D520688F
:1017F000A96820F0F000084320602878C00771D065
:101800005A4A5A4B69680120083A2C33022910D0F1
:1018100003292ED001292FD05FEA402797FAA7FC91
:10182000BCFA8CFC4CF0200C5FEA5C1C04D0126803
:1018300003E04FF40037F1E71A6897FAA7F3B3FA19
:1018400083F303F01F039840024262D0206820F027
:10185000030008432060FFF7F7FD6968074641F27F
:101860008830022910D003291CD00129814626D0B6
:1018700034E04FF00077D1E70227CFE7FFF7E4FD30
:10188000C11B494501D926E081462068C0F381008B
:101890000228F3D126E000BFFFF7D6FDC11B494562
:1018A00001D918E081462068C0F381000328F3D1F4
:1018B00018E000BFFFF7C8FDC11B49450BD82068E1
:1018C000C0F381000128F5D10CE022E0FFF7BCFD58
:1018D000C11B494502D90320BDE8F087206810F0FC
:1018E0000C0FF3D1D8F80010404601F00101B142CD
:1018F00011D9012E03D1016841F004010160016892
:1019000021F0010131430160006800F00100B042A4
:1019100001D00120E0E72878400705D52068E96874
:1019200020F4E060084320602878000706D520688E
:10193000296920F4605040EAC100206000F0BAF844
:101940002168F02292FAA2F201F0F001B2FA82F2DA
:10195000D140074A515CC840064908600F20FFF794
:10196000C7FD0020B8E70000003C024008380240F4
:10197000D975000838000020014800687047000051
:1019800038000020F0B51F21016031490A684FF08E
:10199000050554034FF000034FF0010201D54560E7
:1019A00005E00C68E40301D5426000E043600C6888
:1019B000E40701D0C26000E0C360254C241D266806
:1019C0004FF4F85797FAA7F706F4F856B7FA87F7DF
:1019D000FE4006610E68F60501D5826100E0836174
:1019E00026684FF07F4797FAA7F706F07F46B7FAC9
:1019F00087F7FE40C661246804F460440462144C16
:101A000034342668760501D5856005E02568ED0546
:101A100001D5826000E083602468E40701D0426160
:101A200000E043610968C90102D50221416200E07A
:101A30004262074908310A6802F4803282620A6809
:101A400002F47012C262096801F440010163F0BD42
:101A50000038024008480949006809684FF4E0620C
:101A600092FAA2F201F4E061B2FA82F2D140044AA1
:101A7000515CC84070470000380000200838024020
:101A8000E975000808480949006809684FF4605280
:101A900092FAA2F201F46051B2FA82F2D140044A01
:101AA000515CC840704700003800002008380240F0
:101AB000E97500081E4A116801F00C00042813D0D3
:101AC000082813D00C2813D0101F006800F46041C0
:101AD0004FF4604090FAA0F0B0FA80F0C1404FF4AB
:101AE0000040491C884070471248704712487047B0
:101AF0004FF4701393FAA3F301F47010B3FA83F365
:101B0000D8400E4B01F440011268185C4FF44003BA
:101B100093FAA3F3B3FA83F3D940491CD20301D556
:101B2000054A00E0034A5043B0FBF1F07047000063
:101B3000083802400024F400001BB700D0750008EC
:101B40002DE9F84F07460078FB4EFC4DC0074FF0DB
:101B5000010428D0F848083001684FF40038C1F378
:101B60008101022907D00168C1F3810103291BD13A
:101B70000068C00318D598FAA8F0B0FA80F040F0D9
:101B80002000400901D0306800E0286898FAA8F1E8
:101B9000B1FA81F101F01F0104FA01F108425CD0B1
:101BA000786800287BD058E0786801280AD008B10E
:101BB000052811D0306820F480303060306820F47F
:101BC000802002E0306840F480303060786828B3CC
:101BD000FFF73AFC81460BE0306840F4802030602B
:101BE000F0E700BFFFF730FCA0EB0900642872D8D3
:101BF00098FAA8F0B0FA80F040F02000400901D037
:101C0000306800E0286898FAA8F1B1FA81F101F093
:101C10001F0104FA01F10842E4D01EE0FFF714FCB2
:101C2000814605E0FFF710FCA0EB09006428DED830
:101C300098FAA8F0B0FA80F040F02000400901D0F6
:101C4000306800E0286898FAA8F1B1FA81F101F053
:101C50001F0104FA01F10842E4D13878DFF8E0828C
:101C600080074FF0000B4FF002095FD5B2480830F3
:101C70000168C1F38101012907D00168C1F3810125
:101C800003291CD10068C00319D499FAA9F0B0FA4D
:101C900080F040F02000400902D0306801E086E08A
:101CA000286899FAA9F1B1FA81F101F01F0104FA4B
:101CB00001F108422BD0F868012878D127E0F868B4
:101CC000A8B394FAA4F0B0FA80F048F82040FFF7E7
:101CD000BBFB824606E066E1FFF7B6FBA0EB0A001D
:101CE000022884D899FAA9F1B1FA81F141F02001D2
:101CF000490901D0316800E0296899FAA9F0B0FAE1
:101D000080F000F01F0004FA00F00142E4D08A489D
:101D1000001D01684FF4F85393FAA3F33A69B3FA3C
:101D200083F321F4F8519A401143016025E0FFE765
:101D300094FAA4F1B1FA81F148F821B0FFF784FBDD
:101D4000824605E0FFF780FBA0EB0A000228C8D816
:101D500099FAA9F0B0FA80F040F02000400901D0D3
:101D6000306800E0286899FAA9F1B1FA81F101F030
:101D70001F0104FA01F10842E4D138784FF4007AE7
:101D8000C0067CD56C480830006810F00C0F0FD0EE
:101D9000B9694FF48070002972D090FAA0F0B0FABF
:101DA00080F048F82040FFF74FFB00907EE087E08E
:101DB0009AFAAAF0B0FA80F040F02000400901D071
:101DC000306800E028689AFAAAF1B1FA81F101F0CE
:101DD0001F0104FA01F1084202D0B86900286FD04F
:101DE0005548396A001D006800F4604081421AD9E4
:101DF000084601F0EBFE002862D14F48001D016843
:101E00003A6A21F460411143016001684FF07F4359
:101E100093FAA3F3FA69B3FA83F321F07F419A406E
:101E20001143016018E04448001D026822F460423A
:101E30000A43026001684FF07F4393FAA3F3FA6903
:101E4000B3FA83F321F07F419A4011430160386A6D
:101E500001F0BCFE0028CFD14FF4604191FAA1F10E
:101E6000386AB1FA81F1C8404FF40041401C81400A
:101E7000314808300068F02200F0F00001E070E026
:101E800040E092FAA2F2B2FA82F2D0402D4A105CFF
:101E9000C1402D4801600F20FFF72AFB61E000BF21
:101EA000FFF7D2FA0099401A02287CD89AFAAAF0D1
:101EB000B0FA80F040F02000400902D0306801E024
:101EC000BCE128689AFAAAF1B1FA81F101F01F0188
:101ED00004FA01F10842E3D01748001D01683A6A8C
:101EE00021F460411143016001684FF07F4393FA90
:101EF000A3F3FA69B3FA83F321F07F419A401143C7
:101F000001602EE090FAA0F0B0FA80F048F820B01E
:101F1000FFF79AFA009005E0FFF796FA0099401A49
:101F20000228C2D89AFAAAF0B0FA80F040F0200055
:101F300040090BD030680AE00038024034380240D3
:101F400000004742D97500083800002028689AFA36
:101F5000AAF1B1FA81F101F01F0104FA01F108427E
:101F6000DAD13878000753D5786948B394FAA4F0E9
:101F7000B0FA80F008EB8000C0F88046FFF764FA02
:101F8000009005E0FFF760FA0099401A02288CD80B
:101F900099FAA9F0B0FA80F040F04000B4EB501F7D
:101FA00002D1306801E08EE0286899FAA9F1B1FA0F
:101FB00081F101F01F0104FA01F21042E2D027E0A2
:101FC00094FAA4F1B1FA81F108EB8101C1F880B66D
:101FD000FFF73AFA009005E0FFF736FA0099401A49
:101FE000022870D899FAA9F0B0FA80F040F04000C9
:101FF000B4EB501F01D1306800E0286899FAA9F1CC
:10200000B1FA81F101F01F0104FA01F21042E3D1AB
:10201000387840077BD59B484FF000090068C00026
:102020000AD49848016841F08051016000684FF07F
:10203000010900F08050009093480168C90511D44F
:10204000016841F480710160FFF7FEF9009005E03E
:10205000FFF7FAF90099401A642834D88A480068D2
:10206000C005F5D5B86801280AD008B1052811D0F7
:10207000286820F480702860286820F4806002E0DE
:10208000286840F480702860B86848B3FFF7DCF92E
:1020900000900DE0286840F480602860F0E700BF01
:1020A000FFF7D2F90099411A41F2883081420AD8EB
:1020B0009AFAAAF0B0FA80F040F04000B4EB501F5A
:1020C00002D1306801E095E028689AFAAAF1B1FAE5
:1020D00081F101F01F0104FA01F21042E0D022E088
:1020E000FFF7B2F9009007E0FFF7AEF90099411A47
:1020F00041F2883081427DD89AFAAAF0B0FA80F095
:1021000040F04000B4EB501F02D1306801E012E013
:1021100028689AFAAAF1B1FA81F101F01F0104FAD4
:1021200001F21042E0D1B9F1000F04D05548016826
:1021300021F080510160786AE8B3DFF84891A9F195
:102140001C09D9F80010C1F38101032976D00228B7
:102150004FF080714FF0007A58460BD091FAA1F100
:10216000B1FA81F148F82100FFF76EF9B046074651
:1021700056466DE04FF0807191FAA1F1B1FA81F10C
:102180008A0042495050FFF75FF9B34680465646F1
:1021900006E000BFFFF758F9A0EB0800022854D86A
:1021A00096FAA6F0B0FA80F040F02000400903D083
:1021B000DBF8000001E061E0286896FAA6F1B1FAC8
:1021C00081F101F01F0104FA01F10842E2D1D7E9DF
:1021D0000A103A6BD9F80030014323F47D031A4307
:1021E0001143C9F800104FF0807090FAA0F0B0FAD7
:1021F00080F000E029E0810024480C50FFF724F92A
:10220000074604E0FFF720F9C01B02281DD896FA04
:10221000A6F0B0FA80F040F02000400902D0DBF8D0
:10222000000000E0286896FAA6F1B1FA81F101F009
:102230001F0104FA01F10842E4D01FE020E000BFD2
:10224000FFF702F9C01B022802D90320BDE8F88F6E
:1022500096FAA6F0B0FA80F040F02000400902D0D3
:10226000D8F8000000E0286896FAA6F1B1FA81F1EA
:1022700001F01F0104FA01F10842E1D10020E5E775
:102280000120E3E72438024000700040000047428C
:102290007047000003488069002801D003F0D4BFD4
:1022A000704700006C00002010B50446006881688B
:1022B000C9040CD5C068C00509D52046FFF7EAFF60
:1022C0002068C16801F0800161F4C071C1602068BC
:1022D000816889040CD5C068800509D52046FFF7C0
:1022E000D7FF2068C16801F0800161F42071C160EE
:1022F00003494FF4003008600120607710BD0000F2
:102300001404014010B500680B4641680D480140B7
:10231000080CD870C1F304245C7001F03F049C7079
:10232000C1F34231197052B901F092FCD87058785B
:1023300001F08EFC5870987801F08AFC98700020AB
:1023400010BD00003FFFFF0010B50C460168896A10
:1023500089B2616001680969C1F30E01A16000687A
:1023600001680E480140C1F305402070C1F3062307
:10237000637001F07F03A370402303EA1141E17011
:1023800052B901F065FC2070607801F061FC60706A
:10239000A07801F05DFCA070002010BD7F7F7F0061
:1023A00070B5040002D0607F10B106E0012070BD5E
:1023B00000202077204600F041F802206077216855
:1023C000CA204862216853204862204601F054FC2C
:1023D000FF210028206803D0416204206077E5E7F0
:1023E0008268154B1A4082602268906863681843BF
:1023F000D4E904352B43184390602268E0681061EB
:1024000020680269238942EA034202612068C268A7
:1024100022F08002C2602068026C22F480220264F2
:102420002068026CA3691A4302642068416201209B
:102430006077002070BD0000BFFF8FFF10B50068FF
:10244000194992B088422CD11848016841F0805156
:102450000160006800F080501090FFF7BBF80C207E
:102460000090002001240990029405946846FFF72B
:1024700067FB2004CDE90D400DA8FFF7CFF8A005BC
:1024800090FAA0F00A49B0FA80F001EB8000C0F8A1
:10249000804600220A212920FFF752F82920FFF761
:1024A00044F812B010BD000000280040243802405B
:1024B000000047422DE9F05F0446007F0D460128E9
:1024C00048D00120207702206077206800278068AC
:1024D0004FEA4060EAB3002859DA287801F0B8FBE7
:1024E00095F8200001F0B4FBA8782978EA7840EA52
:1024F00001406978090241EA0241084395F8201039
:1025000040EA0166E869A9690643686906436868A4
:1025100040EA01082168CA204862216853204862C5
:10252000686AFF25B0F5807F20684FF0030B4FF4F9
:102530007A7A81682DD021F4007181602068C168A9
:1025400001F0800161F42071C160FEF77DFF8146DA
:1025500055E002E00220BDE8F09F002800DBEF70AC
:10256000287801F07EFB0604687801F07AFB46EAE1
:102570000026A87801F075FB0643E87846EA004695
:1025800095F8200001F06DFB46EA0066BAE7EF70AF
:10259000A6E721F4807181602068C16801F08001A4
:1025A00061F4C071C160FEF74FFF814606E000BFD5
:1025B000FEF74AFFA0EB0900504519D82068C06813
:1025C000C007F5D02068C6612168C1F84480206842
:1025D000816841F4807181602068816841F4805194
:1025E0001FE000BFFEF730FFA0EB0900504506D901
:1025F0002068456284F81DB027770320ABE7206888
:10260000C0688007EED5206806622168C1F848805E
:102610002068816841F4007181602068816841F41C
:10262000005181600848016841F4003101600648AA
:102630000830016841F400310160206845620120E2
:1026400060772777002086E7000401402DE9F047F6
:102650000446007F0B46012825D04FF0010984F87D
:102660001C9002206077587802B301F0F1FA987854
:1026700001F0EEFA9878D97840EA0145587819784F
:10268000000240EA413005432168CA2048622168BF
:1026900053204862204601F0EFFA0026FF274FF052
:1026A000040838BB19E00220BDE8F087C10603D555
:1026B00000F0EF000A305870D87801F0D2FA020426
:1026C000587801F0CEFA42EA0022987801F0C9FA6F
:1026D0000243187842EA4035D6E70D4805402068A5
:1026E00045602068C16821F08001C160204600F08B
:1026F00085F830B12068476284F81D802677012074
:10270000D2E72068476284F81D9026770020CBE747
:102710003FFFFF002DE9F0470446007F0D460128EA
:1027200011D04FF0010A84F81CA0022060772068C5
:10273000002680684FEA406042B100281ADA287803
:1027400001F086FA17E00220BDE8F087002800DBE0
:10275000EE70287801F085FA0204687801F081FAB9
:1027600042EA0022A87801F07CFA0243E87842EAC3
:1027700000470AE0EE70A878297840EA01476878B7
:10278000E978000240EA014007432168CA20486214
:10279000216853204862204601F06EFA4FF0FF088E
:1027A0004FF00409C0B9144807402068076020684A
:1027B000816821F480218160D5E903010843216803
:1027C0008A68104388602068C16821F08001C16078
:1027D000204600F013F838B12168C1F8248084F84D
:1027E0001D9026770120AFE72168C1F8248084F886
:1027F0001DA026770020A7E77F7F7F0070B50446E5
:1028000000688168890614D4C16821F0A001C16004
:10281000FEF71AFE05464FF47A7606E0FEF714FE40
:10282000401BB04201D9032070BD2068C0688006FB
:10283000F4D5002070BD10B504000ED020680168EA
:1028400021F040010160204600F04EF80020606554
:1028500084F8510084F8500010BD012010BD90F89C
:102860005100704770B5040004D094F85100002561
:1028700010B106E0012070BD84F85050204600F0F1
:1028800034F8022084F851002068016821F04001EA
:102890000160D4E901010843D4E90312114308435C
:1028A00061690843218B01F400710843E169084321
:1028B000216A0843A16A084321680860A0690421CD
:1028C00001EA1040616A0843216848602168E06AB3
:1028D00008612068C16921F40061C161656501205A
:1028E00084F85100002070BD704770472DE9F8430F
:1028F000044690F85100984601286ED139B332B39E
:1029000094F85000012868D0012684F85060122005
:1029100084F85100002565652163A286E286E5649E
:10292000A564A563A587E587A06A7703B84209D1A6
:102930002068016821F4005101602068016841F4B9
:1029400000510160A068B0F5004F03D007E00120FE
:10295000BDE8F8832068016841F480410160206887
:102960000168490603D4016841F040010160E06854
:102970000028606804D0D0B1E08E012817D020E094
:1029800010B1E08E012808D1206B411C2163216821
:102990000078C860E08E401EE086E08EF0B14346CD
:1029A00000220221204601F075FAA0B9ECE7206B65
:1029B00021680088C860206B801C2063E08E401E68
:1029C000E086E08E50B1434600220221204601F00D
:1029D00061FA0028EBD00320BAE726E0A06AB842EB
:1029E00004D12068016841F480510160434600220F
:1029F0000221204601F04EFA30B9434601228021DF
:102A0000204601F047FA20B1606D40F0200060657B
:102A1000E1E7A06818B92068C1688068009084F870
:102A2000516084F85050002092E7022090E72DE991
:102A3000F8430025DDF820800446ADF8005090F8FA
:102A40005100012803D094F8510022287DD169B1AA
:102A500062B15BB194F85000012876D0012684F869
:102A6000506094F85100012803D005E00120BDE832
:102A7000F883322084F851006565A263A387E38759
:102A80002163A386E386A564E564A06A4FF400573A
:102A9000B84209D12068016821F400510160206822
:102AA000016841F40051016020680168490603D4BF
:102AB000016841F040010160E0684FF48271B0F5B7
:102AC000006F606807D0002867D088426ED1E08E22
:102AD000012862D06AE020B188420CD1E08E012842
:102AE00009D1206B21680088C860206B801C20639E
:102AF000E08E401EE086E08E40BBA06AB84244D122
:102B00002068016841F4805101603EE02068C0689F
:102B1000A16B0880A06B801CA0639EE0434600224E
:102B20000221204601F0B6F9002874D1206B2168FB
:102B30000088C860206B801C2063E08E401EE08609
:102B4000E08E50B9A06AB84201E0C7E017E004D1B6
:102B50002068016841F48051016043460022012150
:102B6000204601F097F900286FD12068C068A16B5A
:102B70000880A06B801CA063E08F401EE087E08E81
:102B80000028CBD1606800286AD143460022012189
:102B9000204601F07FF9F0BBB8E7206B411C2163B0
:102BA00021680078C860E08E401EE086E08E98BB09
:102BB000A06AB84204D12068016841F480510160E4
:102BC000434600220121204601F064F918BB206829
:102BD000C068A16B087040E04346002202212046F5
:102BE00001F058F9B8B9206B411C216321680078C5
:102BF000C860E08E401EE086E08E38B9A06AB84218
:102C000004D12068016841F48051016000224346EC
:102C10000121204601E018E00BE001F03BF9A0B9EA
:102C20002068C268A06B411CA1630270E08F401E47
:102C3000E087E08E0028CFD1606888B94346002243
:102C40000121204601F026F908B103200FE7206892
:102C5000C168A06B421CA2630170E08F401EE08738
:102C6000A06AB84210D1434600220121204601F05B
:102C700011F918B1606D40F002000FE02068C068E3
:102C8000ADF80000BDF80000434601228021204637
:102C900001F000F920B1606D40F020006065D4E7DC
:102CA00084F85160A06AB84214D120688168C94391
:102CB000C9060FD4616D41F002016165016821F41C
:102CC000005101602068016841F40051016084F8FE
:102CD0005050CBE684F850500020C8E60220C6E6EB
:102CE00010B5401EB0F1807F01D3012010BD4FF020
:102CF000E02460610F21601700F0C4FB0020A06198
:102D000007202061002010BD704770B5040004D07A
:102D100094F83900002510B106E0012070BD84F858
:102D20003850204600F020F8022084F8390020684E
:102D3000C16821F40051C160204601F065FC2068A3
:102D4000016921F4904101612068416921F02A0163
:102D500041612068C16841F40051C160E563012010
:102D600084F83900002070BD00B500681A4987B0AA
:102D700088422FD11948016841F480410160006800
:102D800000F4804005901548001F016841F00101E2
:102D900001600068694600F0010005904FF4C060D2
:102DA0000090022001900120029003200390072050
:102DB00004900B48FEF778FA0A480068C16841F0B1
:102DC0002001C16000220E212520FEF7B9FB25203D
:102DD000FEF7ABFB07B000BD0038014020380240D1
:102DE00000000240000400202DE9F047044690F85E
:102DF000390099460D46012801D0222858D12DB31B
:102E000022B394F83800012852D0012684F83860A3
:102E10000027E76394F8390022281AD05FF01200E7
:102E200084F83900A284E2844FF48058E08C4B4649
:102E3000401EE084A0684FF0000240454FF0800142
:102E4000204613D101F030FD08BB04E00120BDE8AD
:102E5000F0873220E4E728882168C0F30800486042
:102E6000206908B16D1C08E0AD1C06E001F01CFDF6
:102E700068B9216815F8010B4860E08C0028D5D1AD
:102E80004B4600224021204601F00EFD08B10320F0
:102E9000DDE794F83900322806D084F8396000BFA5
:102EA00084F838700020D2E7222084F83900F7E750
:102EB0000220CCE7FEE708B505208DF800009DF85C
:102EC0000000002803D09DF80000401EF5E708BD73
:102ED00070B500F00DFF0E4D4FF4806400222146C6
:102EE0002846FEF7ACFA002261002846FEF7A7FA52
:102EF000FFF7E1FF012221462846FEF7A0FAFFF77F
:102F0000DAFF21462846BDE870400022FEF797BA56
:102F10000004024010B500F0F3F8A22000F0B6F86B
:102F200000F036F9012858D0002000F0AFF800F08A
:102F30002FF9012851D0002000F0A8F800F028F95E
:102F400001284AD0132000F0A1F800F021F901284F
:102F500043D000F0D5F8A22000F098F800F018F95E
:102F600001283AD0092000F091F800F011F9012869
:102F700033D0802000F08AF800F00AF901282CD024
:102F8000802000F083F800F003F9012825D080208C
:102F900000F07CF800F0FCF801281ED0802000F042
:102FA00075F800F0F5F8012817D0002000F06EF851
:102FB00000F0EEF8012810D0822000F067F800F051
:102FC000E7F8012809D0012000F060F800F0E0F8EF
:102FD000012802D000F0B8F8002010BD70B500F054
:102FE00087FE0E4D4FF48064002221462846FEF7EE
:102FF00026FA0122D1022846FEF721FAFFF75BFFED
:10300000012221462846FEF71AFAFFF754FF21460F
:103010002846BDE870400022FEF711BA00040240C5
:103020002DE9F0470825002400F044FE0122DFF8D6
:103030005880D60231464046FEF701FAB146EF010C
:10304000464616E06006040E002239463046FEF77A
:10305000F6F9FFF730FF012239463046FEF7EFF967
:10306000FFF729FF49463046FEF7E4F908B144F07E
:1030700001046D1EEDB2E5D2002239463046FEF75E
:10308000DEF92046BDE8F087000402402DE9F0415A
:103090000646082400F02CFE4FF40068E701174DA7
:1030A0001DE000BFFEF7CBF9300601D5012200E09C
:1030B000002241462846FEF7C2F97006060EFFF7C9
:1030C000FAFE012239462846FEF7B9F9FFF7F3FE6A
:1030D000002239462846FEF7B2F9FFF7ECFE641EDF
:1030E000E4B24FF0000239462846DBD2FEF7A7F9DA
:1030F00041462846BDE8F041FEF79CB90004024075
:1031000070B500F0F5FD01220E4DD402214628468F
:10311000FEF795F90122960231462846FEF78FF90F
:10312000FFF7C9FE002221462846FEF788F9FFF77F
:10313000C2FE002231462846FEF781F9BDE8704004
:10314000FFF7B9BE0004024070B500F0D1FD0122C6
:103150000E4D940221462846FEF771F966000022C2
:1031600031462846FEF76BF9FFF7A5FE01223146EE
:103170002846FEF764F9FFF79EFE00222146284606
:10318000FEF75DF9BDE87040FFF795BE0004024010
:1031900070B500F08FFD184C4FF480650022294671
:1031A0002046FEF74CF9FFF786FE0122D602314693
:1031B0002046FEF744F9FFF77EFE0122294620460D
:1031C000FEF73DF9FFF777FE31462046FEF732F96C
:1031D00040B1FFF770FE002229462046FEF72FF986
:1031E000012070BDFFF767FE002229462046FEF74A
:1031F00026F9002070BD0000000402400548044983
:1032000001600421416040F6FF718160FEF722B940
:1032100000300040600400202DE9F041334886B0C2
:10322000016841F020010160016801F02001059171
:10323000016841F001010160016801F0010105919F
:10324000016841F0020101600068294F00F00200AE
:103250000590012208213846FEF7F1F8DFF8948046
:103260004FF44064012221464046FEF7E8F801226F
:1032700011463846FEF7E3F8012202213846FEF7F0
:10328000DEF8009401AA01240025032682E87000DC
:1032900069464046FEF708F808208DE87100694647
:1032A0003846FEF701F802208DE87100694638467D
:1032B000FDF7FAFF01AA009482E8700069463846DB
:1032C000FDF7F2FF402000900B48CDE9010469466C
:1032D0004046FDF7E9FF00220A211720FEF730F9EA
:1032E0001720FEF722F906B0BDE8F0811C38024035
:1032F00000000240000402400000211010B51448F4
:103300008AB012490024C0E900147F218160FF21A6
:10331000C0E9031444618461FFF742F84FF4807000
:10332000099001208DF82000800707904FF0803031
:1033300005904FF070600194069000940022694659
:103340000348FFF7B7F80AB010BD0000002800409E
:10335000400400201CB53E4C002604F10D00CDE9D0
:1033600000063A4FDFF8ECB03B4D4FF400794FF0D8
:10337000010A0121B86802F08BFF0028F9D0B84695
:103380004FF0FF373946D8F8080002F081FF0028D7
:10339000F8D1A87D012808D002282DD06E62AE7524
:1033A0006E766FF00100E861ECE7286A494640025A
:1033B00001902748FCF73DFF01234A462448019924
:1033C000FDF744FB58B9052224A1A01CFCF751FFCE
:1033D00028B910221F490098FCF74BFF20B149463D
:1033E0001B48FCF726FF22E0A11C1EA002F026FAD3
:1033F00085F819A0EF61C5E7286A494640020190A7
:103400001348FCF716FF01234A4611480199FDF7BE
:103410001DFB60B9052211A1A01CFCF72AFF30B9E1
:1034200010220C490098FCF724FF0028DCD08BF810
:103430001060084B0CA21F21054802F00FFA20442F
:103440000EA2042102F00AFACEE700008C00002050
:103450005E0600203C06002010060020414851581E
:1034600020000000257300003120414851582041C0
:10347000303030312025732000000000570D0A0045
:10348000FEE770470907090E002806DA00F00F0072
:1034900000F1E02080F8141D704700F1E02080F872
:1034A000001470473EB509200090012001900520CE
:1034B000029069461848FDF707FC1748FDF703FE20
:1034C0004FF47A711448FDF7ABFD144C08B1206835
:1034D00003E01148FDF79CFC2060FDF777F81049E8
:1034E000FCF71DFFFDF790F84FF066320D4BFCF72F
:1034F000FBFFFDF79CF80C49FCF7DFFE0B49606011
:10350000FCF7DBFEFDF780F80022094BFCF745FFD6
:10351000FDF761F8A0603EBDC40400201006002045
:1035200000F07F4566660A400000C0400000204170
:103530000000E03F2DE9FF4190460E4604007DD09B
:10354000FEA2082102F08AF9FE4D0746A87B6B7C9B
:103550002A7CE97B8DE80F006B7BE019FAA207213A
:1035600002F07CF90744707898F8013098F8002050
:10357000B1788DE80F00F378E019F6A2122102F07D
:103580006DF9C619A019FA4A5B2102F067F90644E1
:10359000A019F8A20521AB6802F060F9F83D0644D5
:1035A000A019F4A204212B6802F058F90644A019CE
:1035B000F0A20521D5F8F43002F050F90644A01924
:1035C000EDA20321AB6802F049F90644A019EAA272
:1035D0000321EB6802F042F90644A019E6A2032198
:1035E0002B6902F03BF90644A019E3A203216B69A1
:1035F00002F034F90644A019DFA20321AB6902F0FE
:103600002DF90644A019DCA20321EB6902F026F98A
:103610000644A019D8A203212B6A02F01FF9064420
:10362000A019D5A203216B6A02F018F90644A0196B
:10363000D1A20321AB6A02F011F900E0C5E1064412
:10364000A019CDA20321EB6A02F008F90644A019E3
:10365000C9A203212B6B02F001F90644A019C6A2EE
:1036600003216B6B02F0FAF80644A019C2A20321F1
:10367000AB6B02F0F3F80644A019BFA20321EB6B79
:1036800002F0ECF80644A019BBA203212B6C02F057
:10369000E5F80644A019B8A203216B6C02F0DEF82D
:1036A0000644A019B4A20321AB6C02F0D7F806447B
:1036B000A019B1A20321EB6C02F0D0F80644A019C6
:1036C000ADA203212B6D02F0C9F80644A019AAA2ED
:1036D00003216B6D02F0C2F80644A019A6A20321D3
:1036E000AB6D02F0BBF80644A019A3A20321EB6D59
:1036F00002F0B4F80644A0199FA203212B6E02F039
:10370000ADF80644A0199CA203216B6E02F0A6F846
:103710000644A01998A20321AB6E02F09FF806445C
:10372000A01995A20321EB6E02F098F80644A019A7
:1037300091A203212B6F02F091F80644A0198EA2EA
:1037400003216B6F02F08AF80644A0198AA20321B4
:10375000AB6F02F083F80644A01987A20321EB6F38
:1037600002F07CF80644A01983A20321D5F880302A
:1037700002F074F80644A0197FA20321D5F8843022
:1037800002F06CF80644A0197BA20321D5F888301A
:1037900002F064F80644A01977A20321D5F88C3012
:1037A00002F05CF80644A01973A20321D5F890300A
:1037B00002F054F80644A0196FA20321D5F8943002
:1037C00002F04CF80644A0196BA20321D5F89830FA
:1037D00002F044F80644A01967A20321D5F89C30F2
:1037E00002F03CF80644A01963A20321D5F8A030EA
:1037F00002F034F80644A0195FA20321D5F8A430E2
:1038000002F02CF80644A0195BA20321D5F8A830D9
:1038100002F024F80644A01957A20321D5F8AC30D1
:1038200002F01CF80644A01953A20321D5F8B030C9
:1038300002F014F80644A0194FA20321D5F8B430C1
:1038400002F00CF80644A0194BA20321D5F8B830B9
:1038500002F004F80644A01947A20321D5F8BC30B1
:1038600001F0FCFF0644A01943A20321D5F8C030A3
:1038700001F0F4FF0644A0193FA20321D5F8C4309B
:1038800001F0ECFF0644A0193BA20321D5F8C83093
:1038900001F0E4FF0644A01937A20321D5F8CC308B
:1038A00001F0DCFF0644A01933A20321D5F8D03083
:1038B00001F0D4FF0644A0192FA20321D5F8D4307B
:1038C00001F0CCFF0644A0192BA20321D5F8D83073
:1038D00001F0C4FF0644A01927A20321D5F8DC306B
:1038E00001F0BCFF0644A01923A20321D5F8E03063
:1038F00001F0B4FF0644A0191FA20321D5F8E4305B
:1039000001F0ACFF0644A0191BA20321D5F8E83052
:1039100001F0A4FF0644A01917A20321D5F8EC304A
:1039200001F09CFF0644A01913A20321D5F8F03042
:1039300001F094FF0644A01911A225E0312041486E
:103940005158200010060020256325632563256358
:10395000256320003230253032752D253032752D0B
:103960002530327520253032753A253032752000E9
:10397000B078000825642000253032640000000083
:10398000253032642000000004216B6801F066FFDE
:10399000851960190EA2062101F060FF0544A91ED9
:1039A000A01CFDF7D9F8034660190BA2052101F010
:1039B00055FF284421180D2201F8012C0A22225417
:1039C00000224A7004B0BDE8F0810020FAE7000050
:1039D0003030303020000000253034582000000006
:1039E00070B5FFF78DFBA220FFF750FBFFF7D0FB70
:1039F000012863D00220FFF749FBFFF7C9FB01282C
:103A00005CD0FFF77DFBA320FFF740FBFFF7C0FB77
:103A1000012853D0FFF704FB294C2070FFF758FA18
:103A2000FFF7FEFA6070FFF753FAFFF7F9FAA0709C
:103A3000FFF74EFAFFF7F4FAE070FFF749FAFFF7E5
:103A4000EFFA2071FFF744FAFFF7EAFA6071FFF727
:103A50003FFAFFF7E5FAA071FFF7C0FAFFF774FB32
:103A60006179A07901F01F016171E17801F03F01F6
:103A7000E170A17801F03F01A170617801F07F0150
:103A80006170217801F07F01217000F0E1F8E51FFD
:103A90002870607900F0DCF86870E07800F0D8F801
:103AA000E870A07800F0D4F82871607800F0D0F8C1
:103AB0006871207800F0CCF8A871002070BD00007B
:103AC000A30000202DE9F0471D46DDE90876904669
:103AD0008946632800D90020B9F10C0F01D94FF0B5
:103AE0000109B8F11F0F01D94FF00108172D00D9B6
:103AF00000253B2F00D900273B2E00D9002600F0DF
:103B0000B0F82E4C2070484600F0ABF8607040468C
:103B100000F0A7F8E070284600F0A3F820713846BE
:103B200000F09FF86071304600F09BF8A071FFF73D
:103B3000E7FAA220FFF7AAFAFFF72AFB01283AD0FA
:103B40000220FFF7A3FAFFF723FB012833D0A07967
:103B5000FFF79CFAFFF71CFB01282CD06079FFF7D8
:103B600095FAFFF715FB012825D02079FFF78EFA8B
:103B7000FFF70EFB01281ED0E078FFF787FAFFF76A
:103B800007FB012817D00320FFF780FAFFF700FB9F
:103B9000012810D06078FFF779FAFFF7F9FA0128C9
:103BA00009D02078FFF772FAFFF7F2FA012802D065
:103BB000FFF7CAFA0020BDE8F08700009C00002053
:103BC000704701210846FDF711BD0000F8B5074612
:103BD0001A48002600681A4D10F0F00F20D1174C3B
:103BE0001C342068C00002D5FDF7ECFC0DE0206815
:103BF00040F080502060206800F080500090FDF779
:103C0000E1FC216821F080512160B0F5C05F07D14F
:103C1000B7F5404F04D12868012640F00400286021
:103C2000286820F0010030432860286800F0010077
:103C3000B04201D00120F8BD0020F8BD0838024094
:103C4000003C02400148FEF72FBB0000400400206A
:103C5000010901EB810100F00F0000EB4100C0B24F
:103C60007047002102E00A38C0B2491C0A28FAD283
:103C7000090740EA1160704770B504460068C168E2
:103C8000490614D44FF0FF31C160FDF7DDFB054656
:103C90004FF47A7607E000BFFDF7D6FB401BB04239
:103CA00001D9032070BD2068C0684006F4D500200B
:103CB00070BD00000C4800B5016887B041F00201FA
:103CC00001600068694600F0020005904FF4006052
:103CD0000090002001900290032003900348FDF71C
:103CE000E3FA07B000BD00001C38024000040240A7
:103CF0000C4800B5016887B041F00201016000681E
:103D0000694600F0020005904FF400600090012029
:103D1000019000200290032003900348FDF7C4FAAD
:103D200007B000BD1C3802400004024070B586B0E8
:103D300014216846FCF77DFA13480024016841F01D
:103D40000101016000684FF4807500F001000590EA
:103D50000120CDE90050029003200C4E03906946EB
:103D60003046FDF7A1FA00F0EFF80122294630466F
:103D7000FDF765FBFF2000F035F8641CE4B2092C68
:103D8000F8D906B070BD00001C38024000000240A7
:103D90000EB500200190401E02900748012301AAA1
:103DA0000068009002A90548FEF741FE08B100F046
:103DB000C1F80198C0B20EBD980000206C0400202C
:103DC00070B505464FF6FF7400E0641EFFF7E0FF94
:103DD000A84202D0002CF8D102E00CB1002070BD46
:103DE000032070BD08B501228DF800000548694622
:103DF00003680548FEF77AFD002801D000F09AF824
:103E000008BD0000980000206C0400207CB5002450
:103E1000009440F040008DF80000080E8DF801007D
:103E2000080C01948DF80200080A8DF804108DF832
:103E300003008DF805201D4622464FF48071094885
:103E4000FDF7FDFA6E46305DFFF7CCFF641C062CD3
:103E5000F9D3802D03D02846FFF7B2FF7CBD0020A8
:103E60007CBD00000000024010B501221102044890
:103E7000FDF7E5FABDE81040FF20FFF7B3BF0000F3
:103E80000000024010B5FFF7C1FF0446FFF7ECFF4A
:103E9000204610BD2DE9F0471D4690460E460446CB
:103EA000FDF7D2FA07465FEA08004FF000084FF42A
:103EB000005A4FF0010926D034E0681C23D025B108
:103EC000FDF7C2FAC01BA8421DD92068416821F045
:103ED000E00141602068016821F040010160A06AB2
:103EE000504509D12068016821F400510160206823
:103EF000016841F40051016084F8519084F85080C9
:103F00000320BDE8F0872068806836EA0000D4D13D
:103F10000DE0681C06D0002DD7D0FDF795FAC01B28
:103F2000A842D2D82068806836EA0000F1D000208C
:103F3000E7E7000010B50348FEF77DFCBDE8104040
:103F400000F002B86C04002010B51148FEF787FCA1
:103F500000281CD10E480F49012201600021C161D7
:103F600042618160022202610722C0E90A12C16037
:103F70004FF400720162826141624FF482714160CC
:103F800000F00AF8BDE810400148FEF76BBC10BD18
:103F90006C0400200038004070B586B014216846DB
:103FA000FCF747F91D48016841F002010160016812
:103FB00001F002010591016841F002010160006811
:103FC000022400F0020005904FF40050CDE90004F7
:103FD0000120029003200525CDE90305104E694616
:103FE0003046FDF761F9A0030090694604950294FC
:103FF0003046FDF759F96003009069463046FDF7F9
:1040000053F906480830016841F4804101600068B6
:1040100000F48040059006B070BD00001C380240DE
:104020000004024010B502F063F9BDE81040FDF74E
:1040300041BA000008B5FFF7E1F8FE4FDFF8F8B32A
:1040400007F10D00DFF8F4A3DFF8F483FD4D00263F
:1040500000900121A86902F01BF90028F9D000BFE7
:104060004FF0FF31A86902F013F900287ED14FF418
:10407000FA71E86902F0A0F80028F7D10022F049AF
:10408000F148FEF761F9EF4900221031EE48FEF7E2
:1040900039F9DAF82410504601B9C6749AF81500B7
:1040A000D146012808D199F818004C46012803D1BF
:1040B00002F01CFB30B1667698F8010044461928DE
:1040C00004D008E0667501206076F5E7A0780F2837
:1040D00001D102F019FBA078A04690BBDB4C98F808
:1040E000011004EB8101206848604FF40071D14851
:1040F000FCF79FF8D349D24A1031CE48FFF71AFA9D
:1041000026602E7098F8010048B93046C5F808605E
:1041100004EB8001401C4E603C28F9DBA860C948D4
:10412000C7491030FCF72CFDA8609BF8001041B97E
:10413000410201235A02BF48FCF7C2FC08B1FCF758
:104140006BFC99F814004C46012833D198F8020012
:104150000F280DD1287800285CD1207EC8BBB91C5F
:10416000BBA001F06BFB207D012800E0BAE121D16A
:1041700098F802001E280AD12878E8BB207E40BBB0
:10418000B91CB3A001F05AFB207D012812D198F888
:1041900002002D280AD1287870BB207EC8B9B91C2E
:1041A000ABA001F04BFB207D012803D198F8020061
:1041B0003B2802D0287860B12CE02878E0B9207E36
:1041C00038B9A16A45F26040491CA162814200D918
:1041D000A062E07D01281DD110229E490098FCF7C5
:1041E00048F848B9207E38B9207D012812D1E675FB
:1041F00020763020387000E00CE09BF8000048B9D1
:10420000A868012341025A028A48FCF759FC08B108
:10421000FCF702FC607E022819D198F80210E069D0
:10422000814245D1002843DBE07C012840D1207E3B
:1042300001286DD103206076874985A001F0FEFA40
:10424000E0690F30E0613B2801DD3B38E061607ED2
:10425000032819D198F80210E069814228D100287A
:1042600026DBE07C012823D1207E012850D10420C8
:104270006076794976A001F0E1FAE0690F30E061FB
:104280003B2801DD3B38E061607E042810D198F8BE
:104290000210E06981420BD1002809DBE07C012893
:1042A00006D1C01EE061022060766662A6752662B5
:1042B000207E01286DD1A06A50B3686840BBE07CC5
:1042C00030BBA868A0F5A841603922D4401EE86040
:1042D0004FF4007915E000BF9BF8000070B9494623
:1042E0005448FBF7A6FFE868012341024A465148BB
:1042F000FCF7ACFB10B9387831284DD0E868401E87
:10430000E860E868A968A1F5A84160398842E3DC63
:104310003FE0401EE860E86800281DDD9BF80000D3
:1043200080B94FF4007949464248FBF782FFE868BC
:10433000012341024A463F48FCF788FB10B9387810
:10434000312801D0E868E4E798F80200B91C0F3082
:1043500068603FA001F072FA4048E860DFF8009121
:1043600011E000BF9BF8000050B9E868012341024A
:104370005A023048FCF76AFB10B9387831280BD064
:10438000E868401EE860E968AA6802EB090081421B
:10439000E8DC287848B12DE098F80200B91C0F300D
:1043A00068602BA001F04AFAF3E7207E012821D1B2
:1043B000E07D01281ED1102226490098FBF759FF05
:1043C000C0B9207D012815D1E07C98B96E60E675F2
:1043D000A06A401EA062302038709BF8000048B9E7
:1043E000E868012341025A021248FCF769FB08B150
:1043F000FCF712FB98F802106868814210D13B2844
:1044000010DC297861B9217E012909D1E17D39B912
:10441000E17C29B90F306860B91C0DA001F00EFADB
:10442000686820B1207E10B9287800B96E6098F8CD
:10443000020017E05E0800208C000020100600201B
:10444000EC0300206C000020400400201805002030
:10445000257300004D06002060060020C00A0800F9
:1044600060B607003B2801D126762675627E012AB8
:104470000ED1E269521C0BD1E27C012A08D1022242
:10448000627600F10F02E2613B2A01DD3B3AE26114
:104490001E2801D1FFF706F898F802000A2803D178
:1044A000267515A001F0CAF998F802000F2804D06B
:1044B000012808D003280DD011E0207D78B9A06A2A
:1044C000401CA0620BE098F8010040B90C48C0F80D
:1044D000F46004E004220B490B4801F053FCE86946
:1044E00001F046FE0948006800283FF4B9AD0748CE
:1044F000FCF7D9FFB4E50000475052533F0D0A00C6
:104500001805002038060020040008086004002078
:10451000F0B593B014210DA8FBF78BFE342168464B
:10452000FBF787FE012602250096E8030196CDE9F8
:1045300009504FF44020AF05CDE90B076846FDF761
:10454000FFFA002470B1102000950995CDE90360B1
:10455000C003CDE90A400C976846FDF7F1FA08B1AF
:10456000FDF720F81248016841F0805101600068B1
:1045700000F0805012900F48016821F4C05141F4BE
:10458000006101604168C943C906FBD50F200D9049
:104590000320CDE90E04109401210DA81194FDF71C
:1045A00001F9002801D0FCF7FDFF13B0F0BD0000B9
:1045B00024380240007000400F48016841F48071C7
:1045C00001600D4908310A680C4B1A400A60026804
:1045D0000B4B1A400260026822F4802202600868D5
:1045E00020F47D0008600020091D086005494FF097
:1045F0000060086070470000003802400CC0FF886F
:10460000FEFFFEEE08ED00E02DE9F04104460068F3
:104610000169E26821F44051114301612169A068F8
:10462000E26908436169114308432168CA6849F295
:104630000C639A430243CA6020684169A26921F46D
:10464000407111434161E1696425B1F5004F95481E
:1046500021684FF032083DD081427AD1FDF712FA3D
:1046600000EBC00101EB001061688900B0FBF1F6BE
:10467000FDF708FA00EBC00101EB0010616889004A
:10468000B0FBF1F0B0FBF5F06FF01801484306EB1A
:10469000800108EB0110B0FBF5F000F0F006FDF72B
:1046A000F1F900EBC00101EB001061688900B0FB7B
:1046B000F1F0B0FBF5F006EB0016FDF7E3F900EBC7
:1046C000C00101EB001061688900B0FBF1F7FDF754
:1046D000D9F9D0E081423DD1FDF7D4F900EBC0011A
:1046E00001EB001061684900B0FBF1F0B0FBF5F0A0
:1046F0000601FDF7C7F900EBC00101EB001061688E
:104700004900B0FBF1F7FDF7BDF900EBC00101EB8B
:10471000001061684900B0FBF1F0B0FBF5F06FF0FC
:104720001801484307EB800108EBC100B0FBF5F02E
:1047300000F0F80006EB4006FDF7A4F900EBC0011D
:1047400001EB001061684900B0FBF1F7FDF79AF941
:104750003CE055E0FDF77EF900EBC00101EB0010F5
:1047600061684900B0FBF1F0B0FBF5F00601FDF720
:1047700071F900EBC00101EB001061684900B0FB6A
:10478000F1F7FDF767F900EBC00101EB001061687C
:104790004900B0FBF1F0B0FBF5F06FF018014843B1
:1047A00007EB800108EBC100B0FBF5F000F0F8006A
:1047B00006EB4006FDF74EF900EBC00101EB0010DF
:1047C00061684900B0FBF1F7FDF744F900EBC00167
:1047D00001EB001061684900B0FBF1F0B0FBF5F0AF
:1047E0006FF01801484307EB800108EBC100B0FBF4
:1047F000F5F000F00700216830448860BDE8F081E2
:10480000FDF728F900EBC00101EB00106168890099
:10481000B0FBF1F6FDF71EF900EBC00101EB001053
:1048200061688900B0FBF1F0B0FBF5F06FF01801A2
:10483000484306EB800108EB0110B0FBF5F000F0F7
:10484000F006FDF707F900EBC00101EB001061680D
:104850008900B0FBF1F0B0FBF5F006EB0016FDF7B8
:10486000F9F800EBC00101EB001061688900B0FBB2
:10487000F1F7FDF7EFF800EBC00101EB0010616804
:104880008900B0FBF1F0B0FBF5F06FF01801484380
:1048900007EB800108EB0110B0FBF5F000F00F0012
:1048A000A9E70000003801402DE9F0471D46904679
:1048B0000E460446FCF7C8FD07465FEA08004FF0C5
:1048C00000094FF0010808D030E0681C05D095B110
:1048D000FCF7BAFDC01BA8420DD82068006836EA74
:1048E0000000F2D127E0681C20D025B1FCF7ACFD18
:1048F000C01BA8421AD92068C16821F08001C1609C
:104900002068C16821F02001C1602068C16821F4DD
:104910008071C1602068416921F00101416184F822
:10492000398084F838900320BDE8F087206800685B
:1049300036EA0000D7D00020F6E7000038B5374C43
:1049400021680868C96810F0010F01F4807104D073
:1049500019B1E06B40F00100E06320680168406934
:10496000C1F3400100F0010021B118B1E16B41F049
:104970000401E16321680968C1F3800121B118B124
:10498000E16B41F00201E16321680968C1F3C001F4
:1049900021B118B1E06B40F00800E06320680168C5
:1049A000C268C1F3401102F02002012509B302B32D
:1049B0004068C2B21A48417811B1012915D018E0F7
:1049C000017801290AD00D2A25D0164B81695A5445
:1049D000491C8161B1F5007F06D20AE00021017017
:1049E0000A2A01D0816104E04570406A08B101F0F3
:1049F0002BFC20680168C1680168C168E16B00296F
:104A00000BD001684068009084F839502046BDE81A
:104A10003840FEF779B90570EBE738BD0004002097
:104A20003C000020D80100200849074AC1E90020C5
:104A3000002088600C22C860C1E904028861C86156
:104A40000846FEF762B9000000380140000400206B
:104A5000FEE7000086B0002500958DF8005001F0BB
:104A60006DFA01F023FADFF804946E1E4FF0010A8C
:104A700009F5007BFE4FFF4C0121606A01F008FC44
:104A80000028F8D03146606A01F002FC0028F9D114
:104A9000F848F9491C3001F0D5F9F449F7A0FBF7C3
:104AA000DAFB10B9A069022805D0F049F4A0FBF7A1
:104AB000D2FB40B10AE09BF802000A38052801D277
:104AC00087F814A014E1A069022813D099F8001007
:104AD0004846582910D057290ED0422972D0432970
:104AE00071D0442970D045296FD049296ED0522900
:104AF0006DD07FE13D75E5E7A1690D292DD0F8E77F
:104B0000FE6187F819A0B87D02280CD1D94814306D
:104B1000031FCDE900051A1F111F1038FBF712FF04
:104B2000386A3C303862B87D012851D0786A401E1E
:104B3000786200D1BD751121D248FBF77AFB04F1F0
:104B40000C0007C88DE80700D4E90123CEA1CD48A9
:104B500000F098FE01F0CAFDB4E7D24987F817A02B
:104B600042780A7082784A70C2788A700279CA7074
:104B70002D220A7143794B7183798B71CA71C27985
:104B80000A72027A4A7220228A72427ACA72827A3F
:104B90000A733A224A73C27A8A7399F80C00C8736E
:104BA0000D74787E01288DD0B87D00288AD010221F
:104BB000B449BC48FBF75DFB00289CD1786A00280B
:104BC0009ED17FE712E094E09FE155E3FDE3FDE332
:104BD000A8481430031FCDE900051A1F111F103813
:104BE000FBF7E0FE386A401C38629FE7A1691B2989
:104BF00085D1AC4A87F817A041781170817851703F
:104C0000C17891700179D1702D211171437953715F
:104C100083799371D171C1791172017A5172202116
:104C20009172437AD372837A13735173C17A9173F9
:104C3000017BD1731574417E827E303901EB810393
:104C4000D02101EB43011144C9B28BF8021001914C
:104C5000C17D037E303901EB810CD02101EB4C0189
:104C6000194401F0FF0C8BF801C0417DE646303954
:104C700001EB810C837DD02101EB4C011944CBB2B7
:104C80008BF80030C17C027D303901EB810CD021E2
:104C900001EB4C011144CAB276491C318A7090F87C
:104CA00012C0417C303901EB8108D02101EB480171
:104CB0006144DFF8C0C101F0FF080CF11C0C8CF856
:104CC0000180017C99F80F00303800EB800CD02077
:104CD00000EB4C0008446749C0B21C31C870414623
:104CE000CDF800E0FEF7EEFE002801D101F00CFD4A
:104CF000FEE3A16925297DD187F817A0694987F8C6
:104D000013A042780A7082784A70C2788A70027959
:104D1000CA702D220A7143794B7183798B71CA71E4
:104D2000C2790A72027A4A7220228A72427ACA725E
:104D3000827A0A733A224A73C27A8A73027BCA73EE
:104D40000D74796AD44600297ED07D6287F815C03B
:104D50007D766FF00101F96187F816C099F80F00B0
:104D600099F81010303800EB80026FF02F0000EB44
:104D700042000844606099F8110099F81210303828
:104D800000EB80026FF02F0000EB4200C8460844A1
:104D9000A06098F8130098F81410303800EB8002E7
:104DA0006FF02F0000EB42000844E06098F8150017
:104DB00098F81610303800EB80026FF02F0000EBEF
:104DC00042000844206198F8170098F8181030380D
:104DD00000EB80026FF02F0000EB4200084460619E
:104DE00098F81B0098F81C10303800EB80026FF028
:104DF0002F0000E00AE100EB420001EB000E98F802
:104E00001D0098F81E10303800EB80026FF02F0064
:104E100000EB4200014498F81F0098F82020303839
:104E200000EB80036FF02F0000EB4300024498F882
:104E3000210098F82230303800EB800C6FF02F0002
:104E400000EB4C00034400E04CE098F8230098F895
:104E500024C0303800EB80086FF02F0000EB4800D2
:104E60006044CDE9000570461EE00000D801002036
:104E7000100600203C000020D80300204F4B00000B
:104E8000455200003C0600203230253032642D258A
:104E90003032642D2530326420253032643A25309A
:104EA000326400004D06002001F012F903906069A1
:104EB000CDE90005201D0FC801F00AF980460398CE
:104EC000404520D304F10C0007C88DE80700AFF27D
:104ED0004801D4E90123FD4800F0D4FC0398A0EB7D
:104EE000080101E387F815C036E7F9482179C17058
:104EF000217A4170217B8170217C8BF80010217D0B
:104F00008BF801109BE37D62EFE7A16925297DD134
:104F100087F817A087F813A001464278ED48C846E5
:104F2000D44602708A784270CA7882700A79C27058
:104F30002D2202714B7943718B798371C271CA79C9
:104F400002720A7A4272202282724A7AC2728A7A83
:104F500002733A224273CA7A827398F80C10C173B2
:104F60000574786A87F815C000284FF00200B875FC
:104F70007DD07D627D76001FF86198F80F0098F86B
:104F80001010303800EB80026FF02F0000EB420071
:104F90000844606098F8110098F81210303800EB5F
:104FA00080026FF02F0000EB42000844A06098F8E8
:104FB000130098F81410303800EB80026FF02F00C7
:104FC00000EB42000844E06098F8150098F81610CD
:104FD000303800EB80026FF02F0000EB42000844F5
:104FE000206198F8170098F81810303800EB80020C
:104FF0006FF02F0000EB42000844606198F81B003E
:1050000098F81C10303800EB800200E0B6E16FF039
:105010002F0000EB420001EB000E98F81D0098F8FD
:105020001E10303800EB80026FF02F0000EB4200C2
:10503000014498F81F0098F82020303800EB8003D6
:105040006FF02F0000EB4300024498F8210098F81D
:105050002230303800EB800C6FF02F0000EB4C005A
:10506000034498F8230098F824C0303800E039E071
:1050700000EB80086FF02F0000EB48006044CDE9A2
:105080000005704601F024F803906069CDE9000541
:10509000201D0FC801F01CF88046606948B18C4B98
:1050A00065610C3B1A1F111F0095081F0195FBF746
:1050B00049FC039941457CD304F10C0007C88DE8F5
:1050C0000700AFF23C21D4E90123804800F0DAFB6D
:1050D00003994FF46160A1EB0801B1FBF0F0401CB3
:1050E0007862BCE098F80F0098F81010303800EBA8
:1050F00080026FF02F0000EB42000844606098F8D7
:10510000110098F81210303800EB80026FF02F0079
:1051100000EB42000844A06098F8130098F81410BF
:10512000303800EB80026FF02F0000EB42000844A3
:10513000E06098F8150098F81610303800EB8002FF
:105140006FF02F0000EB42000844206198F8170030
:1051500098F81810303800EB80026FF02F0000EB49
:1051600042000844606198F81B0098F81C10303821
:1051700000EB80026FF02F0000EB420001EB000E0D
:1051800098F81D0098F81E10303800EB80026FF080
:105190002F0000EB4200014498F81F0098F82020EF
:1051A000303800EB80036FF02F0000EB4300024427
:1051B00000E053E098F8210098F82230303800EBF6
:1051C000800C6FF02F0000EB4C00034498F8230094
:1051D00098F824C0303800EB80086FF02F0000EB07
:1051E00048006044CDE90005704600F071FF03906F
:1051F0006069CDE90005201D0FC800F069FF8046F9
:10520000606948B1324B65610C3B1A1F111F009554
:10521000081F0195FBF796FB0398404515D304F151
:105220000C0007C88DE80700AFF2A431D4E90123D0
:10523000264800F027FB03994FF46160A1EB0801B9
:10524000B1FBF0F0401C786200E07D6220492079DB
:10525000C870207A4870207B887007E07D621C4807
:105260002179C170217A4170217B8170217C8BF87A
:1052700000108BF80150E2E1A16933297ED187F853
:1052800017A0144887F813A099F80110017099F835
:105290000210417099F80310817099F80410C170E0
:1052A0002D21017199F80520427199F80620C84610
:1052B0008271C17198F80710017298F80810417254
:1052C0002021817298F80910C17205E03C06002087
:1052D000580000204D06002098F80A1001733A216A
:1052E000417398F80B10817398F80C10C173057412
:1052F00098F8190098F81A10303800EB8002D02086
:1053000000EB42000844C1B28BF80210019198F8FA
:10531000171098F81820303901EB8103D02101EBE8
:105320004301114401F0FF0C8BF801C098F81510EF
:1053300098F81620303901EB8103D02101EB4301AD
:105340001144CBB28BF8003098F8130098F8141081
:10535000303800EB8002D02000EB42000844C2B29B
:10536000F948E646827098F8110098F81210303823
:1053700000EB800CD02000EB4C0000E0B9E10844C9
:10538000F149C0B20490487098F80F0098F81010D6
:10539000303800EB800CD02000EB4C000844EA4988
:1053A000C0B2C870CDF800E00499FEF78BFB08B9D5
:1053B00001F0AAF9786AE8B303207D6200F0C9FE23
:1053C00087F815A098F81E1001E040E18EE198F8EA
:1053D0001D00303800EB80026FF02F0000EB420020
:1053E0000844606098F81F0098F82010303800EBEF
:1053F00080026FF02F0000EB42000844A06098F894
:10540000210098F82210303800EB80026FF02F0056
:1054100000EB42000844E06098F8230098F824105C
:10542000303800EB80026FF02F0000EB42000844A0
:10543000206100E060E098F8250098F826103038E8
:1054400000EB80026FF02F0000EB42000844606127
:1054500098F8290098F82A10303800EB80026FF095
:105460002F0000EB420001EB000E98F82B0098F89B
:105470002C10303800EB80026FF02F0000EB420060
:10548000014498F82D0098F82E20303800EB800366
:105490006FF02F0000EB4300024498F82F0098F8BB
:1054A0003030303800EB800C6FF02F0000EB4C00F8
:1054B000034498F8310098F832C0303800EB800887
:1054C0006FF02F0000EB48006044CDE90005704606
:1054D00000F0FEFD80466069CDE90005201D0FC883
:1054E00000F0F6FDA8EB00013C20B1FBF0F000E07D
:1054F0006CE1401C7862F8E487F815A087F816A0E4
:1055000098F81D0098F81E10303800EB80026FF0FC
:105510002F0000EB42000844606098F81F0098F8E4
:105520002010303800EB80026FF02F0000EB4200BB
:105530000844A06098F8210098F82210303800EB59
:1055400080026FF02F0000EB42000844E06098F802
:10555000230098F82410303800EB80026FF02F0001
:1055600000EB42000844206198F8250098F82610C6
:10557000303800EB80026FF02F0000EB420008444F
:10558000606198F8290098F82A10303800EB800202
:105590006FF02F0000EB420001EB000E98F82B009B
:1055A00098F82C10303800EB80026FF02F0000EBE1
:1055B0004200014498F82D0098F82E20303800EB76
:1055C00080036FF02F0000EB4300024498F82F0097
:1055D00098F83030303800EB800C6FF02F0000EB83
:1055E0004C00034498F8310098F832C0303800EB92
:1055F00080086FF02F0000EB48006044CDE9000503
:10560000704600F065FD80466069CDE90005201D0B
:105610000FC800F05DFDA8EB00013C20B1FBF0F0ED
:10562000401C786248482179C170217A4170217B01
:105630008170207C8BF80000207D8BF801008BF8B6
:10564000025042494048FBF79BFA3862BEE0A1692C
:1056500012294ED13E4987F817A042780A70827805
:105660004A70C2788A700279CA702D220A71437911
:105670004B7183798B71CA71C2790A72027A4A724C
:1056800020228A72427ACA72827A0A733A224A7352
:10569000C27A8A73027BCA730D74437B7B73827BED
:1056A000BA7390F80F8087F80F80017C3974DFF8A7
:1056B00098C099F8110078740CF10C0CBD748CF83A
:1056C00000308CF801208CF802808CF803108CF8E4
:1056D000040030208CF805008CF806008CF8075088
:1056E000082261461B4800F04DFB6FE0A1690D29BF
:1056F00005D01948FAF7A8FD07282FD033E0144A3F
:1057000087F817A04178117081785170C178917035
:105710000179D1702D21117143795371837993717E
:10572000D171C1791172017A517220219172417A3D
:10573000D172817A11733A215173C17A917399F8B8
:105740000C00D073157414E058000020D80300201A
:105750004D0600200C000808D8010020204921A097
:10576000FAF796FD28B11E48FAF76EFD072803D018
:1057700007E0FBF717FF29E019491CA0FAF788FD9D
:1057800028B11748FAF760FD042804D01EE019A0DC
:1057900000F054F81AE012491AA0FAF779FDA8B9F6
:1057A00087F817A019491A4800F04CFB9BF8012014
:1057B0009BF802109BF80000CDE90002144802910A
:1057C00083784278C17813A000F038F8A56165703D
:1057D0004FF400710248FAF72CFDFFF753B90000AF
:1057E000D8010020726573746172740076657273FB
:1057F000696F6E0076657273696F6E3A56312E303E
:105800000000000074696D6500000000D8030020EE
:105810005800002074696D653A3230253032642DAD
:10582000253032642D2530326420253032643A250B
:105830003032643A253032640D0A00000FB4054B53
:1058400010B503A9044A029800F040F810BC5DF8B6
:1058500014FB00002D5E0008E40000200FB41CB50E
:105860000A46521ECDE9000207A9054B6A46069872
:1058700000F02CF8009A002111701CBC5DF814FB9C
:105880002F5D00080FB4084B10B504A902AA0398B5
:1058900000F01CF8044602A9002000F053FA20464C
:1058A00010BC5DF814FB0000455D000802E008C86C
:1058B000121F08C1002AFAD170477047002001E08A
:1058C00001C1121F002AFBD1704700002DE9FF4FD4
:1058D0008DB00F460546002606E025280BD0DDE9F1
:1058E0000F1290476D1C761C28780028F5D111B056
:1058F0003046BDE8F08F0024A246A1460122EC49C3
:1059000000E0044315F8013F203B02FA03F008428F
:10591000F7D128782A2810D06FF02F022878A0F12C
:105920003001092914D80AEB8A0102EB410144F045
:10593000020400EB010A6D1CF0E701CF5FEA000AE8
:1059400003D544F40054CAF1000A44F002046D1C6B
:1059500028782E2817D115F8010F44F004042A28BE
:105960000ED06FF02F022878A0F1300109290AD853
:1059700009EB890102EB410100EB01096D1CF2E723
:1059800057F8049B6D1C28786C280FD006DC4C2837
:1059900017D068280DD06A2814D104E0742810D0DC
:1059A0007A280FD10DE044F400140AE044F4801486
:1059B00001E044F440146978814202D104F5801476
:1059C0006D1C6D1C2A786E2A1FD00CDC632A31D026
:1059D00004DC002A8BD0582A11D1A3E0642A68D0B5
:1059E000692A0CD165E0732A2ED004DC6F2A73D0AB
:1059F000702A04D19BE0752A6FD0782A6ED01046A9
:105A0000DDE90F129047761C50E1C4F302500228E2
:105A100006D0032809D0042801CF09D0066045E14B
:105A200001CFF117C0E9006140E101CF06803DE1FF
:105A300006703BE117F8040B8DF8000000208DF88C
:105A40000100EB46012003E057F804BB4FF0FF30A4
:105A500061074FF0000102D40DE008F10101884612
:105A600049450FDA8045F8DB1BF808100029F4D10E
:105A700008E008F1010188468142FADB1BF80810B2
:105A80000029F6D1DDE90F23AAEB08008146214663
:105A900000F036F9304400EB080604E0DDE90F12AF
:105AA0001BF8010B9047B8F10108F7D22146484690
:105AB000F7E00A21C4F302534FF0000B0891022BC8
:105AC00004D001CFC117032B09D00AE0FF1D27F036
:105AD0000707F7E8020108E032E01FE020E000B22B
